{
  "_format": "hh-sol-artifact-1",
  "contractName": "AttestationRegistry",
  "sourceName": "contracts/verax/registry/AttestationRegistry.sol",
  "abi": [
    {
      "inputs": [],
      "stateMutability": "nonpayable",
      "type": "constructor"
    },
    {
      "inputs": [],
      "name": "AlreadyRevoked",
      "type": "error"
    },
    {
      "inputs": [],
      "name": "ArrayLengthMismatch",
      "type": "error"
    },
    {
      "inputs": [],
      "name": "AttestationDataFieldEmpty",
      "type": "error"
    },
    {
      "inputs": [],
      "name": "AttestationNotAttested",
      "type": "error"
    },
    {
      "inputs": [],
      "name": "AttestationNotRevocable",
      "type": "error"
    },
    {
      "inputs": [],
      "name": "AttestationSubjectFieldEmpty",
      "type": "error"
    },
    {
      "inputs": [],
      "name": "OnlyAttestingPortal",
      "type": "error"
    },
    {
      "inputs": [],
      "name": "OnlyPortal",
      "type": "error"
    },
    {
      "inputs": [],
      "name": "RouterInvalid",
      "type": "error"
    },
    {
      "inputs": [],
      "name": "SchemaNotRegistered",
      "type": "error"
    },
    {
      "anonymous": false,
      "inputs": [
        {
          "indexed": true,
          "internalType": "address",
          "name": "account",
          "type": "address"
        },
        {
          "indexed": true,
          "internalType": "address",
          "name": "operator",
          "type": "address"
        },
        {
          "indexed": false,
          "internalType": "bool",
          "name": "approved",
          "type": "bool"
        }
      ],
      "name": "ApprovalForAll",
      "type": "event"
    },
    {
      "anonymous": false,
      "inputs": [
        {
          "indexed": true,
          "internalType": "bytes32",
          "name": "attestationId",
          "type": "bytes32"
        }
      ],
      "name": "AttestationRegistered",
      "type": "event"
    },
    {
      "anonymous": false,
      "inputs": [
        {
          "indexed": false,
          "internalType": "bytes32",
          "name": "attestationId",
          "type": "bytes32"
        },
        {
          "indexed": false,
          "internalType": "bytes32",
          "name": "replacedBy",
          "type": "bytes32"
        }
      ],
      "name": "AttestationReplaced",
      "type": "event"
    },
    {
      "anonymous": false,
      "inputs": [
        {
          "indexed": false,
          "internalType": "bytes32",
          "name": "attestationId",
          "type": "bytes32"
        }
      ],
      "name": "AttestationRevoked",
      "type": "event"
    },
    {
      "anonymous": false,
      "inputs": [
        {
          "indexed": false,
          "internalType": "uint8",
          "name": "version",
          "type": "uint8"
        }
      ],
      "name": "Initialized",
      "type": "event"
    },
    {
      "anonymous": false,
      "inputs": [
        {
          "indexed": true,
          "internalType": "address",
          "name": "previousOwner",
          "type": "address"
        },
        {
          "indexed": true,
          "internalType": "address",
          "name": "newOwner",
          "type": "address"
        }
      ],
      "name": "OwnershipTransferred",
      "type": "event"
    },
    {
      "anonymous": false,
      "inputs": [
        {
          "indexed": true,
          "internalType": "address",
          "name": "operator",
          "type": "address"
        },
        {
          "indexed": true,
          "internalType": "address",
          "name": "from",
          "type": "address"
        },
        {
          "indexed": true,
          "internalType": "address",
          "name": "to",
          "type": "address"
        },
        {
          "indexed": false,
          "internalType": "uint256[]",
          "name": "ids",
          "type": "uint256[]"
        },
        {
          "indexed": false,
          "internalType": "uint256[]",
          "name": "values",
          "type": "uint256[]"
        }
      ],
      "name": "TransferBatch",
      "type": "event"
    },
    {
      "anonymous": false,
      "inputs": [
        {
          "indexed": true,
          "internalType": "address",
          "name": "operator",
          "type": "address"
        },
        {
          "indexed": true,
          "internalType": "address",
          "name": "from",
          "type": "address"
        },
        {
          "indexed": true,
          "internalType": "address",
          "name": "to",
          "type": "address"
        },
        {
          "indexed": false,
          "internalType": "uint256",
          "name": "id",
          "type": "uint256"
        },
        {
          "indexed": false,
          "internalType": "uint256",
          "name": "value",
          "type": "uint256"
        }
      ],
      "name": "TransferSingle",
      "type": "event"
    },
    {
      "anonymous": false,
      "inputs": [
        {
          "indexed": false,
          "internalType": "string",
          "name": "value",
          "type": "string"
        },
        {
          "indexed": true,
          "internalType": "uint256",
          "name": "id",
          "type": "uint256"
        }
      ],
      "name": "URI",
      "type": "event"
    },
    {
      "anonymous": false,
      "inputs": [
        {
          "indexed": false,
          "internalType": "uint16",
          "name": "version",
          "type": "uint16"
        }
      ],
      "name": "VersionUpdated",
      "type": "event"
    },
    {
      "inputs": [
        {
          "components": [
            {
              "internalType": "bytes32",
              "name": "schemaId",
              "type": "bytes32"
            },
            {
              "internalType": "uint64",
              "name": "expirationDate",
              "type": "uint64"
            },
            {
              "internalType": "bytes",
              "name": "subject",
              "type": "bytes"
            },
            {
              "internalType": "bytes",
              "name": "attestationData",
              "type": "bytes"
            }
          ],
          "internalType": "struct AttestationPayload",
          "name": "attestationPayload",
          "type": "tuple"
        },
        {
          "internalType": "address",
          "name": "attester",
          "type": "address"
        }
      ],
      "name": "attest",
      "outputs": [],
      "stateMutability": "nonpayable",
      "type": "function"
    },
    {
      "inputs": [
        {
          "internalType": "address",
          "name": "account",
          "type": "address"
        },
        {
          "internalType": "uint256",
          "name": "id",
          "type": "uint256"
        }
      ],
      "name": "balanceOf",
      "outputs": [
        {
          "internalType": "uint256",
          "name": "",
          "type": "uint256"
        }
      ],
      "stateMutability": "view",
      "type": "function"
    },
    {
      "inputs": [
        {
          "internalType": "address[]",
          "name": "accounts",
          "type": "address[]"
        },
        {
          "internalType": "uint256[]",
          "name": "ids",
          "type": "uint256[]"
        }
      ],
      "name": "balanceOfBatch",
      "outputs": [
        {
          "internalType": "uint256[]",
          "name": "",
          "type": "uint256[]"
        }
      ],
      "stateMutability": "view",
      "type": "function"
    },
    {
      "inputs": [
        {
          "components": [
            {
              "internalType": "bytes32",
              "name": "schemaId",
              "type": "bytes32"
            },
            {
              "internalType": "uint64",
              "name": "expirationDate",
              "type": "uint64"
            },
            {
              "internalType": "bytes",
              "name": "subject",
              "type": "bytes"
            },
            {
              "internalType": "bytes",
              "name": "attestationData",
              "type": "bytes"
            }
          ],
          "internalType": "struct AttestationPayload[]",
          "name": "attestationsPayloads",
          "type": "tuple[]"
        },
        {
          "internalType": "address",
          "name": "attester",
          "type": "address"
        }
      ],
      "name": "bulkAttest",
      "outputs": [],
      "stateMutability": "nonpayable",
      "type": "function"
    },
    {
      "inputs": [
        {
          "internalType": "bytes32[]",
          "name": "attestationIds",
          "type": "bytes32[]"
        },
        {
          "components": [
            {
              "internalType": "bytes32",
              "name": "schemaId",
              "type": "bytes32"
            },
            {
              "internalType": "uint64",
              "name": "expirationDate",
              "type": "uint64"
            },
            {
              "internalType": "bytes",
              "name": "subject",
              "type": "bytes"
            },
            {
              "internalType": "bytes",
              "name": "attestationData",
              "type": "bytes"
            }
          ],
          "internalType": "struct AttestationPayload[]",
          "name": "attestationPayloads",
          "type": "tuple[]"
        },
        {
          "internalType": "address",
          "name": "attester",
          "type": "address"
        }
      ],
      "name": "bulkReplace",
      "outputs": [],
      "stateMutability": "nonpayable",
      "type": "function"
    },
    {
      "inputs": [
        {
          "internalType": "bytes32[]",
          "name": "attestationIds",
          "type": "bytes32[]"
        }
      ],
      "name": "bulkRevoke",
      "outputs": [],
      "stateMutability": "nonpayable",
      "type": "function"
    },
    {
      "inputs": [
        {
          "internalType": "bytes32",
          "name": "attestationId",
          "type": "bytes32"
        }
      ],
      "name": "getAttestation",
      "outputs": [
        {
          "components": [
            {
              "internalType": "bytes32",
              "name": "attestationId",
              "type": "bytes32"
            },
            {
              "internalType": "bytes32",
              "name": "schemaId",
              "type": "bytes32"
            },
            {
              "internalType": "bytes32",
              "name": "replacedBy",
              "type": "bytes32"
            },
            {
              "internalType": "address",
              "name": "attester",
              "type": "address"
            },
            {
              "internalType": "address",
              "name": "portal",
              "type": "address"
            },
            {
              "internalType": "uint64",
              "name": "attestedDate",
              "type": "uint64"
            },
            {
              "internalType": "uint64",
              "name": "expirationDate",
              "type": "uint64"
            },
            {
              "internalType": "uint64",
              "name": "revocationDate",
              "type": "uint64"
            },
            {
              "internalType": "uint16",
              "name": "version",
              "type": "uint16"
            },
            {
              "internalType": "bool",
              "name": "revoked",
              "type": "bool"
            },
            {
              "internalType": "bytes",
              "name": "subject",
              "type": "bytes"
            },
            {
              "internalType": "bytes",
              "name": "attestationData",
              "type": "bytes"
            }
          ],
          "internalType": "struct Attestation",
          "name": "",
          "type": "tuple"
        }
      ],
      "stateMutability": "view",
      "type": "function"
    },
    {
      "inputs": [],
      "name": "getAttestationIdCounter",
      "outputs": [
        {
          "internalType": "uint32",
          "name": "",
          "type": "uint32"
        }
      ],
      "stateMutability": "view",
      "type": "function"
    },
    {
      "inputs": [],
      "name": "getVersionNumber",
      "outputs": [
        {
          "internalType": "uint16",
          "name": "",
          "type": "uint16"
        }
      ],
      "stateMutability": "view",
      "type": "function"
    },
    {
      "inputs": [],
      "name": "incrementVersionNumber",
      "outputs": [
        {
          "internalType": "uint16",
          "name": "",
          "type": "uint16"
        }
      ],
      "stateMutability": "nonpayable",
      "type": "function"
    },
    {
      "inputs": [],
      "name": "initialize",
      "outputs": [],
      "stateMutability": "nonpayable",
      "type": "function"
    },
    {
      "inputs": [
        {
          "internalType": "address",
          "name": "account",
          "type": "address"
        },
        {
          "internalType": "address",
          "name": "operator",
          "type": "address"
        }
      ],
      "name": "isApprovedForAll",
      "outputs": [
        {
          "internalType": "bool",
          "name": "",
          "type": "bool"
        }
      ],
      "stateMutability": "view",
      "type": "function"
    },
    {
      "inputs": [
        {
          "internalType": "bytes32",
          "name": "attestationId",
          "type": "bytes32"
        }
      ],
      "name": "isRegistered",
      "outputs": [
        {
          "internalType": "bool",
          "name": "",
          "type": "bool"
        }
      ],
      "stateMutability": "view",
      "type": "function"
    },
    {
      "inputs": [
        {
          "internalType": "address",
          "name": "portalId",
          "type": "address"
        }
      ],
      "name": "isRevocable",
      "outputs": [
        {
          "internalType": "bool",
          "name": "",
          "type": "bool"
        }
      ],
      "stateMutability": "view",
      "type": "function"
    },
    {
      "inputs": [
        {
          "components": [
            {
              "internalType": "bytes32",
              "name": "schemaId",
              "type": "bytes32"
            },
            {
              "internalType": "uint64",
              "name": "expirationDate",
              "type": "uint64"
            },
            {
              "internalType": "bytes",
              "name": "subject",
              "type": "bytes"
            },
            {
              "internalType": "bytes",
              "name": "attestationData",
              "type": "bytes"
            }
          ],
          "internalType": "struct AttestationPayload[]",
          "name": "attestationsPayloads",
          "type": "tuple[]"
        },
        {
          "internalType": "address",
          "name": "portal",
          "type": "address"
        }
      ],
      "name": "massImport",
      "outputs": [],
      "stateMutability": "nonpayable",
      "type": "function"
    },
    {
      "inputs": [],
      "name": "owner",
      "outputs": [
        {
          "internalType": "address",
          "name": "",
          "type": "address"
        }
      ],
      "stateMutability": "view",
      "type": "function"
    },
    {
      "inputs": [],
      "name": "renounceOwnership",
      "outputs": [],
      "stateMutability": "nonpayable",
      "type": "function"
    },
    {
      "inputs": [
        {
          "internalType": "bytes32",
          "name": "attestationId",
          "type": "bytes32"
        },
        {
          "components": [
            {
              "internalType": "bytes32",
              "name": "schemaId",
              "type": "bytes32"
            },
            {
              "internalType": "uint64",
              "name": "expirationDate",
              "type": "uint64"
            },
            {
              "internalType": "bytes",
              "name": "subject",
              "type": "bytes"
            },
            {
              "internalType": "bytes",
              "name": "attestationData",
              "type": "bytes"
            }
          ],
          "internalType": "struct AttestationPayload",
          "name": "attestationPayload",
          "type": "tuple"
        },
        {
          "internalType": "address",
          "name": "attester",
          "type": "address"
        }
      ],
      "name": "replace",
      "outputs": [],
      "stateMutability": "nonpayable",
      "type": "function"
    },
    {
      "inputs": [
        {
          "internalType": "bytes32",
          "name": "attestationId",
          "type": "bytes32"
        }
      ],
      "name": "revoke",
      "outputs": [],
      "stateMutability": "nonpayable",
      "type": "function"
    },
    {
      "inputs": [],
      "name": "router",
      "outputs": [
        {
          "internalType": "contract IRouter",
          "name": "",
          "type": "address"
        }
      ],
      "stateMutability": "view",
      "type": "function"
    },
    {
      "inputs": [
        {
          "internalType": "address",
          "name": "from",
          "type": "address"
        },
        {
          "internalType": "address",
          "name": "to",
          "type": "address"
        },
        {
          "internalType": "uint256[]",
          "name": "ids",
          "type": "uint256[]"
        },
        {
          "internalType": "uint256[]",
          "name": "amounts",
          "type": "uint256[]"
        },
        {
          "internalType": "bytes",
          "name": "data",
          "type": "bytes"
        }
      ],
      "name": "safeBatchTransferFrom",
      "outputs": [],
      "stateMutability": "nonpayable",
      "type": "function"
    },
    {
      "inputs": [
        {
          "internalType": "address",
          "name": "from",
          "type": "address"
        },
        {
          "internalType": "address",
          "name": "to",
          "type": "address"
        },
        {
          "internalType": "uint256",
          "name": "id",
          "type": "uint256"
        },
        {
          "internalType": "uint256",
          "name": "amount",
          "type": "uint256"
        },
        {
          "internalType": "bytes",
          "name": "data",
          "type": "bytes"
        }
      ],
      "name": "safeTransferFrom",
      "outputs": [],
      "stateMutability": "nonpayable",
      "type": "function"
    },
    {
      "inputs": [
        {
          "internalType": "address",
          "name": "operator",
          "type": "address"
        },
        {
          "internalType": "bool",
          "name": "approved",
          "type": "bool"
        }
      ],
      "name": "setApprovalForAll",
      "outputs": [],
      "stateMutability": "nonpayable",
      "type": "function"
    },
    {
      "inputs": [
        {
          "internalType": "bytes4",
          "name": "interfaceId",
          "type": "bytes4"
        }
      ],
      "name": "supportsInterface",
      "outputs": [
        {
          "internalType": "bool",
          "name": "",
          "type": "bool"
        }
      ],
      "stateMutability": "view",
      "type": "function"
    },
    {
      "inputs": [
        {
          "internalType": "address",
          "name": "newOwner",
          "type": "address"
        }
      ],
      "name": "transferOwnership",
      "outputs": [],
      "stateMutability": "nonpayable",
      "type": "function"
    },
    {
      "inputs": [
        {
          "internalType": "address",
          "name": "_router",
          "type": "address"
        }
      ],
      "name": "updateRouter",
      "outputs": [],
      "stateMutability": "nonpayable",
      "type": "function"
    },
    {
      "inputs": [
        {
          "internalType": "uint256",
          "name": "",
          "type": "uint256"
        }
      ],
      "name": "uri",
      "outputs": [
        {
          "internalType": "string",
          "name": "",
          "type": "string"
        }
      ],
      "stateMutability": "view",
      "type": "function"
    }
  ],
  "bytecode": "0x60806040523480156200001157600080fd5b506200001c62000022565b620000e3565b600054610100900460ff16156200008f5760405162461bcd60e51b815260206004820152602760248201527f496e697469616c697a61626c653a20636f6e747261637420697320696e697469604482015266616c697a696e6760c81b606482015260840160405180910390fd5b60005460ff90811614620000e1576000805460ff191660ff9081179091556040519081527f7f26b83ff96e1f2b6a682f133852f6798a09c465da95921460cefb38474024989060200160405180910390a15b565b6134fd80620000f36000396000f3fe608060405234801561001057600080fd5b50600436106101a85760003560e01c80638da5cb5b116100f9578063d0fc9f8311610097578063f20c141611610071578063f20c1416146103ea578063f242432a1461040f578063f2fde38b14610422578063f887ea401461043557600080fd5b8063d0fc9f8314610388578063d46f6a2c1461039b578063e985e9c5146103ae57600080fd5b8063a3112a64116100d3578063a3112a641461032f578063a8e2812d1461034f578063b75c7dc614610362578063c851cc321461037557600080fd5b80638da5cb5b146102e45780638ffa736b14610309578063a22cb4651461031c57600080fd5b80634cbe11cb1161016657806362fa3d451161014057806362fa3d45146102ae5780636ec4d4cb146102c1578063715018a6146102d45780638129fc1c146102dc57600080fd5b80634cbe11cb146102605780634e1273f41461027b57806354255be01461029b57600080fd5b8062fdd58e146101ad57806301ffc9a7146101d35780630e89341c146101f657806327258b22146102165780632eb2c2d6146102385780634ada80761461024d575b600080fd5b6101c06101bb366004612999565b610448565b6040519081526020015b60405180910390f35b6101e66101e1366004612c81565b61068b565b60405190151581526020016101ca565b610209610204366004612c1c565b6106db565b6040516101ca9190612f69565b6101e6610224366004612c1c565b600090815260ca6020526040902054151590565b61024b61024636600461285d565b61076f565b005b61024b61025b366004612b10565b6107c4565b610268610816565b60405161ffff90911681526020016101ca565b61028e6102893660046129c4565b6108a9565b6040516101ca9190612f31565b60c954600160a01b900461ffff16610268565b61024b6102bc366004612cb9565b610bf6565b61024b6102cf366004612a90565b611152565b61024b6111f9565b61024b61120d565b6033546001600160a01b03165b6040516001600160a01b0390911681526020016101ca565b61024b610317366004612c34565b61131f565b61024b61032a36600461296c565b611399565b61034261033d366004612c1c565b6113a4565b6040516101ca91906130ec565b61024b61035d366004612bac565b611610565b61024b610370366004612c1c565b61166e565b61024b6103833660046127e6565b6117c8565b61024b610396366004612bac565b611819565b6101e66103a93660046127e6565b611bcc565b6101e66103bc366004612825565b6001600160a01b03918216600090815260986020908152604080832093909416825291909152205460ff1690565b60c954600160b01b900463ffffffff1660405163ffffffff90911681526020016101ca565b61024b61041d366004612906565b611ce1565b61024b6104303660046127e6565b611d26565b60c9546102f1906001600160a01b031681565b600081815260ca602090815260408083208151610180810183528154815260018201549381019390935260028101549183019190915260038101546001600160a01b03908116606084015260048201549081166080840152600160a01b90046001600160401b0390811660a0840152600582015480821660c0850152600160401b810490911660e0840152600160801b810461ffff16610100840152600160901b900460ff1615156101208301526006810180548593859390929091610140840191906105149061330e565b80601f01602080910402602001604051908101604052809291908181526020018280546105409061330e565b801561058d5780601f106105625761010080835404028352916020019161058d565b820191906000526020600020905b81548152906001019060200180831161057057829003601f168201915b505050505081526020016007820180546105a69061330e565b80601f01602080910402602001604051908101604052809291908181526020018280546105d29061330e565b801561061f5780601f106105f45761010080835404028352916020019161061f565b820191906000526020600020905b81548152906001019060200180831161060257829003601f168201915b50505050508152505090508460405160200161064a91906001600160a01b0391909116815260200190565b6040516020818303038152906040528051906020012081610140015180519060200120141561067e57600192505050610685565b6000925050505b92915050565b60006001600160e01b03198216636cdb3d1360e11b14806106bc57506001600160e01b031982166303a24d0760e21b145b8061068557506301ffc9a760e01b6001600160e01b0319831614610685565b6060609980546106ea9061330e565b80601f01602080910402602001604051908101604052809291908181526020018280546107169061330e565b80156107635780601f1061073857610100808354040283529160200191610763565b820191906000526020600020905b81548152906001019060200180831161074657829003601f168201915b50505050509050919050565b6001600160a01b03851633148061078b575061078b85336103bc565b6107b05760405162461bcd60e51b81526004016107a790612fc4565b60405180910390fd5b6107bd8585858585611d9c565b5050505050565b60005b8151811015610812576108008282815181106107f357634e487b7160e01b600052603260045260246000fd5b602002602001015161166e565b8061080a81613391565b9150506107c7565b5050565b6000610820611f90565b60c9805460149061083b90600160a01b900461ffff1661336f565b82546101009290920a61ffff81810219909316918316021790915560c954604051600160a01b90910490911681527f5891971a9a7b7a3d45b4bec8fe5ec184b79ca6d26177fbbddad04baa14fdc72c9060200160405180910390a15060c954600160a01b900461ffff165b90565b606081518351146108cd5760405163512509d360e11b815260040160405180910390fd5b600083516001600160401b038111156108f657634e487b7160e01b600052604160045260246000fd5b60405190808252806020026020018201604052801561091f578160200160208202803683370190505b50905060005b8451811015610bee57600084828151811061095057634e487b7160e01b600052603260045260246000fd5b602090810291909101810151600081815260ca835260408082208151610180810183528154815260018201549581019590955260028101549185019190915260038101546001600160a01b03908116606086015260048201549081166080860152600160a01b90046001600160401b0390811660a0860152600582015480821660c0870152600160401b810490911660e0860152600160801b810461ffff16610100860152600160901b900460ff1615156101208501526006810180549395509193929091610140840191610a249061330e565b80601f0160208091040260200160405190810160405280929190818152602001828054610a509061330e565b8015610a9d5780601f10610a7257610100808354040283529160200191610a9d565b820191906000526020600020905b815481529060010190602001808311610a8057829003601f168201915b50505050508152602001600782018054610ab69061330e565b80601f0160208091040260200160405190810160405280929190818152602001828054610ae29061330e565b8015610b2f5780601f10610b0457610100808354040283529160200191610b2f565b820191906000526020600020905b815481529060010190602001808311610b1257829003601f168201915b5050505050815250509050868381518110610b5a57634e487b7160e01b600052603260045260246000fd5b6020026020010151604051602001610b8191906001600160a01b0391909116815260200190565b60405160208183030381529060405280519060200120816101400151805190602001201415610bd9576001848481518110610bcc57634e487b7160e01b600052603260045260246000fd5b6020026020010181815250505b50508080610be690613391565b915050610925565b509392505050565b33600060c960009054906101000a90046001600160a01b03166001600160a01b031663b7dac9766040518163ffffffff1660e01b815260040160206040518083038186803b158015610c4757600080fd5b505afa158015610c5b573d6000803e3d6000fd5b505050506040513d601f19601f82011682018060405250810190610c7f9190612809565b60405163c3c5a54760e01b81526001600160a01b038481166004830152919091169063c3c5a5479060240160206040518083038186803b158015610cc257600080fd5b505afa158015610cd6573d6000803e3d6000fd5b505050506040513d601f19601f82011682018060405250810190610cfa9190612c00565b905080610d1a57604051630f46c81b60e21b815260040160405180910390fd5b60c95460408051631e216b9960e31b815290516000926001600160a01b03169163f10b5cc8916004808301926020929190829003018186803b158015610d5f57600080fd5b505afa158015610d73573d6000803e3d6000fd5b505050506040513d601f19601f82011682018060405250810190610d979190612809565b604051631392c59160e11b8152863560048201529091506001600160a01b038216906327258b229060240160206040518083038186803b158015610dda57600080fd5b505afa158015610dee573d6000803e3d6000fd5b505050506040513d601f19601f82011682018060405250810190610e129190612c00565b610e2f57604051638cc004a960e01b815260040160405180910390fd5b610e3c60408601866131f5565b15159050610e5d57604051636367e41160e01b815260040160405180910390fd5b610e6a60608601866131f5565b15159050610e8b57604051634e46e0b360e01b815260040160405180910390fd5b60c98054600160b01b900463ffffffff16906016610ea8836133ac565b82546101009290920a63ffffffff81810219909316918316021790915560c9546040805161018081018252600160b01b90920490921680825288356020808401919091526000838501526001600160a01b0389166060840152336080840152426001600160401b031660a0840152909350909160c0830191610f2e918a01908a01612e01565b6001600160401b0316815260006020820181905260c954600160a01b900461ffff166040808401919091526060830191909152608090910190610f73908901896131f5565b8080601f016020809104026020016040519081016040528093929190818152602001838380828437600092019190915250505090825250602001610fba60608901896131f5565b8080601f016020809104026020016040519081016040528093929190818152602001838380828437600092018290525093909452505083815260ca60209081526040918290208451815584820151600182015591840151600283015560608401516003830180546001600160a01b039283166001600160a01b0319909116179055608085015160048401805460a08801516001600160401b03908116600160a01b026001600160e01b0319909216939094169290921791909117905560c085015160058401805460e08801516101008901516101208a01511515600160901b0260ff60901b1961ffff909216600160801b029190911662ffffff60801b19928716600160401b026001600160801b0319909416959096169490941791909117169290921717905561014084015180519293506110ff9260068501929190910190612541565b50610160820151805161111c916007840191602090910190612541565b50506040518291507ffe10586889e06530420fe4a0d86aa4f7afc3c9dc84b0c77b731a9615496ef18a90600090a2505050505050565b8382146111725760405163512509d360e11b815260040160405180910390fd5b60005b848110156111f1576111df8686838181106111a057634e487b7160e01b600052603260045260246000fd5b905060200201358585848181106111c757634e487b7160e01b600052603260045260246000fd5b90506020028101906111d99190613239565b8461131f565b806111e981613391565b915050611175565b505050505050565b611201611f90565b61120b6000611fea565b565b600054610100900460ff161580801561122d5750600054600160ff909116105b806112475750303b158015611247575060005460ff166001145b6112aa5760405162461bcd60e51b815260206004820152602e60248201527f496e697469616c697a61626c653a20636f6e747261637420697320616c72656160448201526d191e481a5b9a5d1a585b1a5e995960921b60648201526084016107a7565b6000805460ff1916600117905580156112cd576000805461ff0019166101001790555b6112d561203c565b801561131c576000805461ff0019169055604051600181527f7f26b83ff96e1f2b6a682f133852f6798a09c465da95921460cefb3847402498906020015b60405180910390a15b50565b6113298282610bf6565b6113328361166e565b60c954600084815260ca6020908152604091829020600160b01b90930463ffffffff16600290930183905581518681529081018390527f77d674474bd19340e11693fde02ab981634002a50709bcaf013916b59e40c07d910160405180910390a150505050565b61081233838361206b565b60408051610180810182526000808252602080830182905282840182905260608084018390526080840183905260a0840183905260c0840183905260e0840183905261010084018390526101208401839052610140840181905261016084015284825260ca9052919091205461142d5760405163038d7caf60e21b815260040160405180910390fd5b600082815260ca60209081526040918290208251610180810184528154815260018201549281019290925260028101549282019290925260038201546001600160a01b03908116606083015260048301549081166080830152600160a01b90046001600160401b0390811660a0830152600583015480821660c0840152600160401b810490911660e0830152600160801b810461ffff16610100830152600160901b900460ff161515610120820152600682018054919291610140840191906114f59061330e565b80601f01602080910402602001604051908101604052809291908181526020018280546115219061330e565b801561156e5780601f106115435761010080835404028352916020019161156e565b820191906000526020600020905b81548152906001019060200180831161155157829003601f168201915b505050505081526020016007820180546115879061330e565b80601f01602080910402602001604051908101604052809291908181526020018280546115b39061330e565b80156116005780601f106115d557610100808354040283529160200191611600565b820191906000526020600020905b8154815290600101906020018083116115e357829003601f168201915b5050505050815250509050919050565b60005b828110156116685761165684848381811061163e57634e487b7160e01b600052603260045260246000fd5b90506020028101906116509190613239565b83610bf6565b8061166081613391565b915050611613565b50505050565b600081815260ca602052604090205461169a5760405163038d7caf60e21b815260040160405180910390fd5b600081815260ca6020526040902060050154600160901b900460ff16156116d45760405163905e710760e01b815260040160405180910390fd5b600081815260ca60205260409020600401546001600160a01b031633146117115760405160016246018d60e01b0319815260040160405180910390fd5b600081815260ca6020526040902060040154611735906001600160a01b0316611bcc565b61175257604051632e7eadc560e11b815260040160405180910390fd5b600081815260ca60205260409081902060050180546001600160401b034216600160401b0272ff0000ffffffffffffffff00000000000000001990911617600160901b179055517f04bed256ad23fe17d61d9248ee108825bf3b1d04527fee36f0ee2af633fc1452906113139083815260200190565b6117d0611f90565b6001600160a01b0381166117f7576040516324a2034760e11b815260040160405180910390fd5b60c980546001600160a01b0319166001600160a01b0392909216919091179055565b611821611f90565b60005b828110156116685760c98054600160b01b900463ffffffff16906016611849836133ac565b91906101000a81548163ffffffff021916908363ffffffff16021790555050600060c960169054906101000a900463ffffffff1663ffffffff1660001b90506040518061018001604052808281526020018686858181106118ba57634e487b7160e01b600052603260045260246000fd5b90506020028101906118cc9190613239565b358152600060208201523360408201526001600160a01b03851660608201526001600160401b034216608082015260a00186868581811061191d57634e487b7160e01b600052603260045260246000fd5b905060200281019061192f9190613239565b611940906040810190602001612e01565b6001600160401b0316815260006020820181905260c954600160a01b900461ffff166040830152606082015260800186868581811061198f57634e487b7160e01b600052603260045260246000fd5b90506020028101906119a19190613239565b6119af9060408101906131f5565b8080601f016020809104026020016040519081016040528093929190818152602001838380828437600092019190915250505090825250602001868685818110611a0957634e487b7160e01b600052603260045260246000fd5b9050602002810190611a1b9190613239565b611a299060608101906131f5565b8080601f016020809104026020016040519081016040528093929190818152602001838380828437600092018290525093909452505083815260ca60209081526040918290208451815584820151600182015591840151600283015560608401516003830180546001600160a01b039283166001600160a01b0319909116179055608085015160048401805460a08801516001600160401b03908116600160a01b026001600160e01b0319909216939094169290921791909117905560c085015160058401805460e08801516101008901516101208a01511515600160901b0260ff60901b1961ffff909216600160801b029190911662ffffff60801b19928716600160401b026001600160801b031990941695909616949094179190911716929092171790556101408401518051929350611b6e9260068501929190910190612541565b506101608201518051611b8b916007840191602090910190612541565b50506040518291507ffe10586889e06530420fe4a0d86aa4f7afc3c9dc84b0c77b731a9615496ef18a90600090a25080611bc481613391565b915050611824565b60008060c960009054906101000a90046001600160a01b03166001600160a01b031663b7dac9766040518163ffffffff1660e01b815260040160206040518083038186803b158015611c1d57600080fd5b505afa158015611c31573d6000803e3d6000fd5b505050506040513d601f19601f82011682018060405250810190611c559190612809565b60405163181f78e960e31b81526001600160a01b0385811660048301529192509082169063c0fbc7489060240160006040518083038186803b158015611c9a57600080fd5b505afa158015611cae573d6000803e3d6000fd5b505050506040513d6000823e601f3d908101601f19168201604052611cd69190810190612cfd565b606001519392505050565b6001600160a01b038516331480611cfd5750611cfd85336103bc565b611d195760405162461bcd60e51b81526004016107a790612fc4565b6107bd858585858561214c565b611d2e611f90565b6001600160a01b038116611d935760405162461bcd60e51b815260206004820152602660248201527f4f776e61626c653a206e6577206f776e657220697320746865207a65726f206160448201526564647265737360d01b60648201526084016107a7565b61131c81611fea565b8151835114611dfe5760405162461bcd60e51b815260206004820152602860248201527f455243313135353a2069647320616e6420616d6f756e7473206c656e677468206044820152670dad2e6dac2e8c6d60c31b60648201526084016107a7565b6001600160a01b038416611e245760405162461bcd60e51b81526004016107a790613012565b3360005b8451811015611f2a576000858281518110611e5357634e487b7160e01b600052603260045260246000fd5b602002602001015190506000858381518110611e7f57634e487b7160e01b600052603260045260246000fd5b60209081029190910181015160008481526097835260408082206001600160a01b038e168352909352919091205490915081811015611ed05760405162461bcd60e51b81526004016107a790613057565b60008381526097602090815260408083206001600160a01b038e8116855292528083208585039055908b16825281208054849290611f0f9084906132ca565b9250508190555050505080611f2390613391565b9050611e28565b50846001600160a01b0316866001600160a01b0316826001600160a01b03167f4a39dc06d4c0dbc64b70af90fd698a233a518aa5d07e595d983b8c0526c8f7fb8787604051611f7a929190612f44565b60405180910390a46111f181878787878761227a565b6033546001600160a01b0316331461120b5760405162461bcd60e51b815260206004820181905260248201527f4f776e61626c653a2063616c6c6572206973206e6f7420746865206f776e657260448201526064016107a7565b603380546001600160a01b038381166001600160a01b0319831681179093556040519116919082907f8be0079c531659141344cd1fd0a4f28419497f9722a3daafe3b4186f6b6457e090600090a35050565b600054610100900460ff166120635760405162461bcd60e51b81526004016107a7906130a1565b61120b6123ee565b816001600160a01b0316836001600160a01b031614156120df5760405162461bcd60e51b815260206004820152602960248201527f455243313135353a2073657474696e6720617070726f76616c20737461747573604482015268103337b91039b2b63360b91b60648201526084016107a7565b6001600160a01b03838116600081815260986020908152604080832094871680845294825291829020805460ff191686151590811790915591519182527f17307eab39ab6107e8899845ad3d59bd9653f200f220920489ca2b5937696c31910160405180910390a3505050565b6001600160a01b0384166121725760405162461bcd60e51b81526004016107a790613012565b33600061217e8561241e565b9050600061218b8561241e565b905060008681526097602090815260408083206001600160a01b038c168452909152902054858110156121d05760405162461bcd60e51b81526004016107a790613057565b60008781526097602090815260408083206001600160a01b038d8116855292528083208985039055908a1682528120805488929061220f9084906132ca565b909155505060408051888152602081018890526001600160a01b03808b16928c821692918816917fc3d58168c5ae7397731d063d5bbf3d657854427343f4c083240f7aacaa2d0f62910160405180910390a461226f848a8a8a8a8a612477565b505050505050505050565b6001600160a01b0384163b156111f15760405163bc197c8160e01b81526001600160a01b0385169063bc197c81906122be9089908990889088908890600401612e8e565b602060405180830381600087803b1580156122d857600080fd5b505af1925050508015612308575060408051601f3d908101601f1916820190925261230591810190612c9d565b60015b6123b5576123146133ee565b806308c379a0141561234e5750612329613405565b806123345750612350565b8060405162461bcd60e51b81526004016107a79190612f69565b505b60405162461bcd60e51b815260206004820152603460248201527f455243313135353a207472616e7366657220746f206e6f6e2d455243313135356044820152732932b1b2b4bb32b91034b6b83632b6b2b73a32b960611b60648201526084016107a7565b6001600160e01b0319811663bc197c8160e01b146123e55760405162461bcd60e51b81526004016107a790612f7c565b50505050505050565b600054610100900460ff166124155760405162461bcd60e51b81526004016107a7906130a1565b61120b33611fea565b6040805160018082528183019092526060916000919060208083019080368337019050509050828160008151811061246657634e487b7160e01b600052603260045260246000fd5b602090810291909101015292915050565b6001600160a01b0384163b156111f15760405163f23a6e6160e01b81526001600160a01b0385169063f23a6e61906124bb9089908990889088908890600401612eec565b602060405180830381600087803b1580156124d557600080fd5b505af1925050508015612505575060408051601f3d908101601f1916820190925261250291810190612c9d565b60015b612511576123146133ee565b6001600160e01b0319811663f23a6e6160e01b146123e55760405162461bcd60e51b81526004016107a790612f7c565b82805461254d9061330e565b90600052602060002090601f01602090048101928261256f57600085556125b5565b82601f1061258857805160ff19168380011785556125b5565b828001600101855582156125b5579182015b828111156125b557825182559160200191906001019061259a565b506125c19291506125c5565b5090565b5b808211156125c157600081556001016125c6565b80516125e58161348e565b919050565b600082601f8301126125fa578081fd5b8151602061260782613280565b6040516126148282613343565b8381528281019150858301600585901b87018401881015612633578586fd5b855b8581101561265a5781516126488161348e565b84529284019290840190600101612635565b5090979650505050505050565b60008083601f840112612678578182fd5b5081356001600160401b0381111561268e578182fd5b6020830191508360208260051b85010111156126a957600080fd5b9250929050565b600082601f8301126126c0578081fd5b813560206126cd82613280565b6040516126da8282613343565b8381528281019150858301600585901b870184018810156126f9578586fd5b855b8581101561265a578135845292840192908401906001016126fb565b80516125e5816134a3565b600082601f830112612732578081fd5b813561273d816132a3565b60405161274a8282613343565b82815285602084870101111561275e578384fd5b82602086016020830137918201602001929092529392505050565b600082601f830112612789578081fd5b8151612794816132a3565b6040516127a18282613343565b8281528560208487010111156127b5578384fd5b6127c68360208301602088016132e2565b95945050505050565b6000608082840312156127e0578081fd5b50919050565b6000602082840312156127f7578081fd5b81356128028161348e565b9392505050565b60006020828403121561281a578081fd5b81516128028161348e565b60008060408385031215612837578081fd5b82356128428161348e565b915060208301356128528161348e565b809150509250929050565b600080600080600060a08688031215612874578081fd5b853561287f8161348e565b9450602086013561288f8161348e565b935060408601356001600160401b03808211156128aa578283fd5b6128b689838a016126b0565b945060608801359150808211156128cb578283fd5b6128d789838a016126b0565b935060808801359150808211156128ec578283fd5b506128f988828901612722565b9150509295509295909350565b600080600080600060a0868803121561291d578283fd5b85356129288161348e565b945060208601356129388161348e565b9350604086013592506060860135915060808601356001600160401b03811115612960578182fd5b6128f988828901612722565b6000806040838503121561297e578182fd5b82356129898161348e565b91506020830135612852816134a3565b600080604083850312156129ab578182fd5b82356129b68161348e565b946020939093013593505050565b600080604083850312156129d6578182fd5b82356001600160401b03808211156129ec578384fd5b818501915085601f8301126129ff578384fd5b81356020612a0c82613280565b604051612a198282613343565b8381528281019150858301600585901b870184018b1015612a38578889fd5b8896505b84871015612a63578035612a4f8161348e565b835260019690960195918301918301612a3c565b5096505086013592505080821115612a79578283fd5b50612a86858286016126b0565b9150509250929050565b600080600080600060608688031215612aa7578283fd5b85356001600160401b0380821115612abd578485fd5b612ac989838a01612667565b90975095506020880135915080821115612ae1578485fd5b50612aee88828901612667565b9094509250506040860135612b028161348e565b809150509295509295909350565b60006020808385031215612b22578182fd5b82356001600160401b03811115612b37578283fd5b8301601f81018513612b47578283fd5b8035612b5281613280565b604051612b5f8282613343565b8281528481019150838501600584901b85018601891015612b7e578687fd5b8694505b83851015612ba0578035835260019490940193918501918501612b82565b50979650505050505050565b600080600060408486031215612bc0578081fd5b83356001600160401b03811115612bd5578182fd5b612be186828701612667565b9094509250506020840135612bf58161348e565b809150509250925092565b600060208284031215612c11578081fd5b8151612802816134a3565b600060208284031215612c2d578081fd5b5035919050565b600080600060608486031215612c48578081fd5b8335925060208401356001600160401b03811115612c64578182fd5b612c70868287016127cf565b9250506040840135612bf58161348e565b600060208284031215612c92578081fd5b8135612802816134b1565b600060208284031215612cae578081fd5b8151612802816134b1565b60008060408385031215612ccb578182fd5b82356001600160401b03811115612ce0578283fd5b612cec858286016127cf565b92505060208301356128528161348e565b600060208284031215612d0e578081fd5b81516001600160401b0380821115612d24578283fd5b9083019060e08286031215612d37578283fd5b612d3f613258565b612d48836125da565b8152612d56602084016125da565b6020820152604083015182811115612d6c578485fd5b612d78878286016125ea565b604083015250612d8a60608401612717565b6060820152608083015182811115612da0578485fd5b612dac87828601612779565b60808301525060a083015182811115612dc3578485fd5b612dcf87828601612779565b60a08301525060c083015182811115612de6578485fd5b612df287828601612779565b60c08301525095945050505050565b600060208284031215612e12578081fd5b81356001600160401b0381168114612802578182fd5b6000815180845260208085019450808401835b83811015612e5757815187529582019590820190600101612e3b565b509495945050505050565b60008151808452612e7a8160208601602086016132e2565b601f01601f19169290920160200192915050565b6001600160a01b0386811682528516602082015260a060408201819052600090612eba90830186612e28565b8281036060840152612ecc8186612e28565b90508281036080840152612ee08185612e62565b98975050505050505050565b6001600160a01b03868116825285166020820152604081018490526060810183905260a060808201819052600090612f2690830184612e62565b979650505050505050565b6020815260006128026020830184612e28565b604081526000612f576040830185612e28565b82810360208401526127c68185612e28565b6020815260006128026020830184612e62565b60208082526028908201527f455243313135353a204552433131353552656365697665722072656a656374656040820152676420746f6b656e7360c01b606082015260800190565b6020808252602e908201527f455243313135353a2063616c6c6572206973206e6f7420746f6b656e206f776e60408201526d195c881bdc88185c1c1c9bdd995960921b606082015260800190565b60208082526025908201527f455243313135353a207472616e7366657220746f20746865207a65726f206164604082015264647265737360d81b606082015260800190565b6020808252602a908201527f455243313135353a20696e73756666696369656e742062616c616e636520666f60408201526939103a3930b739b332b960b11b606082015260800190565b6020808252602b908201527f496e697469616c697a61626c653a20636f6e7472616374206973206e6f74206960408201526a6e697469616c697a696e6760a81b606082015260800190565b602081528151602082015260208201516040820152604082015160608201526000606083015161312760808401826001600160a01b03169052565b5060808301516001600160a01b03811660a08401525060a08301516001600160401b03811660c08401525060c08301516001600160401b03811660e08401525060e0830151610100613183818501836001600160401b03169052565b840151905061012061319a8482018361ffff169052565b84015190506101406131af8482018315159052565b8085015191505061018061016081818601526131cf6101a0860184612e62565b90860151858203601f1901838701529092506131eb8382612e62565b9695505050505050565b6000808335601e1984360301811261320b578283fd5b8301803591506001600160401b03821115613224578283fd5b6020019150368190038213156126a957600080fd5b60008235607e1983360301811261324e578182fd5b9190910192915050565b60405160e081016001600160401b038111828210171561327a5761327a6133d8565b60405290565b60006001600160401b03821115613299576132996133d8565b5060051b60200190565b60006001600160401b038211156132bc576132bc6133d8565b50601f01601f191660200190565b600082198211156132dd576132dd6133c2565b500190565b60005b838110156132fd5781810151838201526020016132e5565b838111156116685750506000910152565b600181811c9082168061332257607f821691505b602082108114156127e057634e487b7160e01b600052602260045260246000fd5b601f8201601f191681016001600160401b0381118282101715613368576133686133d8565b6040525050565b600061ffff80831681811415613387576133876133c2565b6001019392505050565b60006000198214156133a5576133a56133c2565b5060010190565b600063ffffffff80831681811415613387576133875b634e487b7160e01b600052601160045260246000fd5b634e487b7160e01b600052604160045260246000fd5b600060033d11156108a657600481823e5160e01c90565b600060443d10156134135790565b6040516003193d81016004833e81513d6001600160401b03816024840111818411171561344257505050505090565b828501915081518181111561345a5750505050505090565b843d87010160208285010111156134745750505050505090565b61348360208286010187613343565b509095945050505050565b6001600160a01b038116811461131c57600080fd5b801515811461131c57600080fd5b6001600160e01b03198116811461131c57600080fdfea26469706673582212200f8c468555e1218491aa97b503fd9a84f02a8187e35e6792152f4fe571530e6464736f6c63430008040033",
  "linkReferences": {},
  "deployedLinkReferences": {}
}