{
  "_format": "hh-sol-artifact-1",
  "contractName": "ReclaimPortal",
  "sourceName": "contracts/verax/ReclaimPortal.sol",
  "abi": [
    {
      "inputs": [
        {
          "internalType": "address[]",
          "name": "modules",
          "type": "address[]"
        },
        {
          "internalType": "address",
          "name": "router",
          "type": "address"
        }
      ],
      "stateMutability": "nonpayable",
      "type": "constructor"
    },
    {
      "inputs": [],
      "name": "NoBulkRevocation",
      "type": "error"
    },
    {
      "inputs": [],
      "name": "NoRevocation",
      "type": "error"
    },
    {
      "inputs": [],
      "name": "OnlyPortalOwner",
      "type": "error"
    },
    {
      "inputs": [
        {
          "components": [
            {
              "internalType": "bytes32",
              "name": "schemaId",
              "type": "bytes32"
            },
            {
              "internalType": "uint64",
              "name": "expirationDate",
              "type": "uint64"
            },
            {
              "internalType": "bytes",
              "name": "subject",
              "type": "bytes"
            },
            {
              "internalType": "bytes",
              "name": "attestationData",
              "type": "bytes"
            }
          ],
          "internalType": "struct AttestationPayload",
          "name": "attestationPayload",
          "type": "tuple"
        },
        {
          "internalType": "bytes[]",
          "name": "validationPayloads",
          "type": "bytes[]"
        }
      ],
      "name": "attest",
      "outputs": [],
      "stateMutability": "payable",
      "type": "function"
    },
    {
      "inputs": [
        {
          "components": [
            {
              "internalType": "bytes32",
              "name": "schema",
              "type": "bytes32"
            },
            {
              "components": [
                {
                  "components": [
                    {
                      "components": [
                        {
                          "internalType": "string",
                          "name": "provider",
                          "type": "string"
                        },
                        {
                          "internalType": "string",
                          "name": "parameters",
                          "type": "string"
                        },
                        {
                          "internalType": "string",
                          "name": "context",
                          "type": "string"
                        }
                      ],
                      "internalType": "struct Claims.ClaimInfo",
                      "name": "claimInfo",
                      "type": "tuple"
                    },
                    {
                      "components": [
                        {
                          "components": [
                            {
                              "internalType": "bytes32",
                              "name": "identifier",
                              "type": "bytes32"
                            },
                            {
                              "internalType": "address",
                              "name": "owner",
                              "type": "address"
                            },
                            {
                              "internalType": "uint32",
                              "name": "timestampS",
                              "type": "uint32"
                            },
                            {
                              "internalType": "uint32",
                              "name": "epoch",
                              "type": "uint32"
                            }
                          ],
                          "internalType": "struct Claims.CompleteClaimData",
                          "name": "claim",
                          "type": "tuple"
                        },
                        {
                          "internalType": "bytes[]",
                          "name": "signatures",
                          "type": "bytes[]"
                        }
                      ],
                      "internalType": "struct Claims.SignedClaim",
                      "name": "signedClaim",
                      "type": "tuple"
                    }
                  ],
                  "internalType": "struct Reclaim.Proof",
                  "name": "proof",
                  "type": "tuple"
                },
                {
                  "internalType": "uint256",
                  "name": "_identityCommitment",
                  "type": "uint256"
                },
                {
                  "internalType": "uint64",
                  "name": "expirationTime",
                  "type": "uint64"
                }
              ],
              "internalType": "struct ReclaimPortal.AttestationRequestData",
              "name": "data",
              "type": "tuple"
            }
          ],
          "internalType": "struct ReclaimPortal.AttestationRequest",
          "name": "attestationRequest",
          "type": "tuple"
        }
      ],
      "name": "attest",
      "outputs": [],
      "stateMutability": "payable",
      "type": "function"
    },
    {
      "inputs": [],
      "name": "attestationRegistry",
      "outputs": [
        {
          "internalType": "contract AttestationRegistry",
          "name": "",
          "type": "address"
        }
      ],
      "stateMutability": "view",
      "type": "function"
    },
    {
      "inputs": [
        {
          "components": [
            {
              "internalType": "bytes32",
              "name": "schemaId",
              "type": "bytes32"
            },
            {
              "internalType": "uint64",
              "name": "expirationDate",
              "type": "uint64"
            },
            {
              "internalType": "bytes",
              "name": "subject",
              "type": "bytes"
            },
            {
              "internalType": "bytes",
              "name": "attestationData",
              "type": "bytes"
            }
          ],
          "internalType": "struct AttestationPayload[]",
          "name": "attestationsPayloads",
          "type": "tuple[]"
        },
        {
          "internalType": "bytes[][]",
          "name": "validationPayloads",
          "type": "bytes[][]"
        }
      ],
      "name": "bulkAttest",
      "outputs": [],
      "stateMutability": "nonpayable",
      "type": "function"
    },
    {
      "inputs": [
        {
          "internalType": "bytes32[]",
          "name": "attestationIds",
          "type": "bytes32[]"
        },
        {
          "components": [
            {
              "internalType": "bytes32",
              "name": "schemaId",
              "type": "bytes32"
            },
            {
              "internalType": "uint64",
              "name": "expirationDate",
              "type": "uint64"
            },
            {
              "internalType": "bytes",
              "name": "subject",
              "type": "bytes"
            },
            {
              "internalType": "bytes",
              "name": "attestationData",
              "type": "bytes"
            }
          ],
          "internalType": "struct AttestationPayload[]",
          "name": "attestationsPayloads",
          "type": "tuple[]"
        },
        {
          "internalType": "bytes[][]",
          "name": "validationPayloads",
          "type": "bytes[][]"
        }
      ],
      "name": "bulkReplace",
      "outputs": [],
      "stateMutability": "nonpayable",
      "type": "function"
    },
    {
      "inputs": [
        {
          "internalType": "bytes32[]",
          "name": "attestationIds",
          "type": "bytes32[]"
        }
      ],
      "name": "bulkRevoke",
      "outputs": [],
      "stateMutability": "nonpayable",
      "type": "function"
    },
    {
      "inputs": [],
      "name": "getAttester",
      "outputs": [
        {
          "internalType": "address",
          "name": "",
          "type": "address"
        }
      ],
      "stateMutability": "view",
      "type": "function"
    },
    {
      "inputs": [],
      "name": "getModules",
      "outputs": [
        {
          "internalType": "address[]",
          "name": "",
          "type": "address[]"
        }
      ],
      "stateMutability": "view",
      "type": "function"
    },
    {
      "inputs": [],
      "name": "moduleRegistry",
      "outputs": [
        {
          "internalType": "contract ModuleRegistry",
          "name": "",
          "type": "address"
        }
      ],
      "stateMutability": "view",
      "type": "function"
    },
    {
      "inputs": [
        {
          "internalType": "uint256",
          "name": "",
          "type": "uint256"
        }
      ],
      "name": "modules",
      "outputs": [
        {
          "internalType": "address",
          "name": "",
          "type": "address"
        }
      ],
      "stateMutability": "view",
      "type": "function"
    },
    {
      "inputs": [],
      "name": "portalRegistry",
      "outputs": [
        {
          "internalType": "contract PortalRegistry",
          "name": "",
          "type": "address"
        }
      ],
      "stateMutability": "view",
      "type": "function"
    },
    {
      "inputs": [
        {
          "internalType": "bytes32",
          "name": "attestationId",
          "type": "bytes32"
        },
        {
          "components": [
            {
              "internalType": "bytes32",
              "name": "schemaId",
              "type": "bytes32"
            },
            {
              "internalType": "uint64",
              "name": "expirationDate",
              "type": "uint64"
            },
            {
              "internalType": "bytes",
              "name": "subject",
              "type": "bytes"
            },
            {
              "internalType": "bytes",
              "name": "attestationData",
              "type": "bytes"
            }
          ],
          "internalType": "struct AttestationPayload",
          "name": "attestationPayload",
          "type": "tuple"
        },
        {
          "internalType": "bytes[]",
          "name": "validationPayloads",
          "type": "bytes[]"
        }
      ],
      "name": "replace",
      "outputs": [],
      "stateMutability": "payable",
      "type": "function"
    },
    {
      "inputs": [
        {
          "internalType": "bytes32",
          "name": "attestationId",
          "type": "bytes32"
        }
      ],
      "name": "revoke",
      "outputs": [],
      "stateMutability": "nonpayable",
      "type": "function"
    },
    {
      "inputs": [],
      "name": "router",
      "outputs": [
        {
          "internalType": "contract IRouter",
          "name": "",
          "type": "address"
        }
      ],
      "stateMutability": "view",
      "type": "function"
    },
    {
      "inputs": [
        {
          "internalType": "bytes4",
          "name": "interfaceID",
          "type": "bytes4"
        }
      ],
      "name": "supportsInterface",
      "outputs": [
        {
          "internalType": "bool",
          "name": "",
          "type": "bool"
        }
      ],
      "stateMutability": "pure",
      "type": "function"
    },
    {
      "inputs": [
        {
          "internalType": "address payable",
          "name": "to",
          "type": "address"
        },
        {
          "internalType": "uint256",
          "name": "amount",
          "type": "uint256"
        }
      ],
      "name": "withdraw",
      "outputs": [],
      "stateMutability": "nonpayable",
      "type": "function"
    }
  ],
  "bytecode": "0x60806040523480156200001157600080fd5b50604051620019a7380380620019a78339810160408190526200003491620002f5565b8151829082906200004d90600190602085019062000233565b50600080546001600160a01b0319166001600160a01b0383169081179091556040805163bfa6658560e01b8152905163bfa6658591600480820192602092909190829003018186803b158015620000a357600080fd5b505afa158015620000b8573d6000803e3d6000fd5b505050506040513d601f19601f82011682018060405250810190620000de9190620002d1565b600380546001600160a01b0319166001600160a01b03928316179055600054604080516376f63ca960e11b81529051919092169163edec7952916004808301926020929190829003018186803b1580156200013857600080fd5b505afa1580156200014d573d6000803e3d6000fd5b505050506040513d601f19601f82011682018060405250810190620001739190620002d1565b600280546001600160a01b0319166001600160a01b0392831617905560005460408051635bed64bb60e11b81529051919092169163b7dac976916004808301926020929190829003018186803b158015620001cd57600080fd5b505afa158015620001e2573d6000803e3d6000fd5b505050506040513d601f19601f82011682018060405250810190620002089190620002d1565b600480546001600160a01b0319166001600160a01b039290921691909117905550620003f392505050565b8280548282559060005260206000209081019282156200028b579160200282015b828111156200028b57825182546001600160a01b0319166001600160a01b0390911617825560209092019160019091019062000254565b50620002999291506200029d565b5090565b5b808211156200029957600081556001016200029e565b80516001600160a01b0381168114620002cc57600080fd5b919050565b600060208284031215620002e3578081fd5b620002ee82620002b4565b9392505050565b6000806040838503121562000308578081fd5b82516001600160401b03808211156200031f578283fd5b818501915085601f83011262000333578283fd5b81516020828211156200034a576200034a620003dd565b8160051b604051601f19603f83011681018181108682111715620003725762000372620003dd565b604052838152828101945085830182870184018b101562000391578788fd5b8796505b84871015620003be57620003a981620002b4565b86526001969096019594830194830162000395565b509650620003d09050878201620002b4565b9450505050509250929050565b634e487b7160e01b600052604160045260246000fd5b6115a480620004036000396000f3fe6080604052600436106100f35760003560e01c8063b66649341161008a578063ecdbb4fd11610059578063ecdbb4fd14610282578063ed6d73f914610295578063f3fef3a3146102b5578063f887ea40146102d457600080fd5b8063b66649341461020f578063b75c7dc61461022f578063b95459e41461024f578063e46d92781461026f57600080fd5b8063523ba7ca116100c6578063523ba7ca1461018257806381b2248a146101a25780638388e226146101da578063b2494df3146101ed57600080fd5b806301ffc9a7146100f8578063074321961461012d5780633cc30e2a146101425780634ada807614610162575b600080fd5b34801561010457600080fd5b50610118610113366004610e19565b6102f4565b60405190151581526020015b60405180910390f35b61014061013b366004610e48565b61032b565b005b34801561014e57600080fd5b5061014061015d366004610cbf565b610405565b34801561016e57600080fd5b5061014061017d366004610c85565b6104d5565b34801561018e57600080fd5b5061014061019d366004610d42565b610543565b3480156101ae57600080fd5b506101c26101bd366004610da2565b6105da565b6040516001600160a01b039091168152602001610124565b3480156101e657600080fd5b50336101c2565b3480156101f957600080fd5b50610202610604565b60405161012491906111bd565b34801561021b57600080fd5b506004546101c2906001600160a01b031681565b34801561023b57600080fd5b5061014061024a366004610da2565b610666565b34801561025b57600080fd5b506002546101c2906001600160a01b031681565b61014061027d366004610e9e565b6106a0565b610140610290366004610dba565b6107d4565b3480156102a157600080fd5b506003546101c2906001600160a01b031681565b3480156102c157600080fd5b506101406102d0366004610c5a565b5050565b3480156102e057600080fd5b506000546101c2906001600160a01b031681565b60006001600160e01b0319821663204cf90960e01b148061032557506001600160e01b031982166301ffc9a760e01b145b92915050565b60025460405163747129e560e11b81526001600160a01b039091169063e8e253ca9061036290600190869086903490600401611290565b600060405180830381600087803b15801561037c57600080fd5b505af1158015610390573d6000803e3d6000fd5b5050505061039f826102d03390565b6003546001600160a01b03166362fa3d4583336040518363ffffffff1660e01b81526004016103cf92919061139a565b600060405180830381600087803b1580156103e957600080fd5b505af11580156103fd573d6000803e3d6000fd5b505050505050565b60025460405163715d762560e11b81526001600160a01b039091169063e2baec4a9061043a906001908690869060040161120a565b600060405180830381600087803b15801561045457600080fd5b505af1158015610468573d6000803e3d6000fd5b505050506003546001600160a01b0316636ec4d4cb8484336040518463ffffffff1660e01b815260040161049e939291906112ee565b600060405180830381600087803b1580156104b857600080fd5b505af11580156104cc573d6000803e3d6000fd5b50505050505050565b6104de8161087b565b60035460405163256d403b60e11b81526001600160a01b0390911690634ada80769061050e9084906004016112db565b600060405180830381600087803b15801561052857600080fd5b505af115801561053c573d6000803e3d6000fd5b5050505050565b60025460405163715d762560e11b81526001600160a01b039091169063e2baec4a90610578906001908690869060040161120a565b600060405180830381600087803b15801561059257600080fd5b505af11580156105a6573d6000803e3d6000fd5b505050506003546001600160a01b031663a8e2812d83336040518363ffffffff1660e01b81526004016103cf92919061132c565b600181815481106105ea57600080fd5b6000918252602090912001546001600160a01b0316905081565b6060600180548060200260200160405190810160405280929190818152602001828054801561065c57602002820191906000526020600020905b81546001600160a01b0316815260019091019060200180831161063e575b5050505050905090565b61066f81610894565b600354604051635bae3ee360e11b8152600481018390526001600160a01b039091169063b75c7dc69060240161050e565b604080516001808252818301909252600091816020015b60608152602001906001900390816106b757905050905060006040518060800160405280846000015181526020018460200151604001516001600160401b0316815260200133604051602001610725919060609190911b6bffffffffffffffffffffffff1916815260140190565b6040516020818303038152906040528152602001846020015160000151600001516020015160405160200161075a9190611387565b60408051601f198184030181529181529152602085810151805190820151925193945061078a93909291016113ad565b604051602081830303815290604052826000815181106107ba57634e487b7160e01b600052603260045260246000fd5b60200260200101819052506107cf818361032b565b505050565b60025460405163747129e560e11b81526001600160a01b039091169063e8e253ca9061080b90600190869086903490600401611290565b600060405180830381600087803b15801561082557600080fd5b505af1158015610839573d6000803e3d6000fd5b5050505061084983836107cf3390565b6003546001600160a01b0316638ffa736b8484336040518463ffffffff1660e01b815260040161049e93929190611356565b60405163d87b5d8d60e01b815260040160405180910390fd5b6040516311fd06c760e11b815260040160405180910390fd5b600082601f8301126108bd578081fd5b813560206108d26108cd8361151d565b6114ed565b80838252828201915082860187848660051b89010111156108f1578586fd5b855b858110156109315781356001600160401b03811115610910578788fd5b61091e8a87838c010161099b565b85525092840192908401906001016108f3565b5090979650505050505050565b600082601f83011261094e578081fd5b8135602061095e6108cd8361151d565b80838252828201915082860187848660051b890101111561097d578586fd5b855b858110156109315781358452928401929084019060010161097f565b600082601f8301126109ab578081fd5b813560206109bb6108cd8361151d565b80838252828201915082860187848660051b89010111156109da578586fd5b855b858110156109315781356001600160401b038111156109f9578788fd5b610a078a87838c0101610a99565b85525092840192908401906001016109dc565b600082601f830112610a2a578081fd5b81356020610a3a6108cd8361151d565b80838252828201915082860187848660051b8901011115610a59578586fd5b855b858110156109315781356001600160401b03811115610a78578788fd5b610a868a87838c0101610b03565b8552509284019290840190600101610a5b565b600082601f830112610aa9578081fd5b81356001600160401b03811115610ac257610ac2611540565b610ad5601f8201601f19166020016114ed565b818152846020838601011115610ae9578283fd5b816020850160208301379081016020019190915292915050565b600060808284031215610b14578081fd5b610b1c611481565b905081358152610b2e60208301610c43565b602082015260408201356001600160401b0380821115610b4d57600080fd5b610b5985838601610a99565b60408401526060840135915080821115610b7257600080fd5b50610b7f84828501610a99565b60608301525092915050565b600081830360a0811215610b9d578182fd5b610ba56114a9565b91506080811215610bb557600080fd5b50610bbe611481565b823581526020830135610bd081611556565b6020820152610be160408401610c2a565b6040820152610bf260608401610c2a565b6060820152815260808201356001600160401b03811115610c1257600080fd5b610c1e8482850161099b565b60208301525092915050565b803563ffffffff81168114610c3e57600080fd5b919050565b80356001600160401b0381168114610c3e57600080fd5b60008060408385031215610c6c578182fd5b8235610c7781611556565b946020939093013593505050565b600060208284031215610c96578081fd5b81356001600160401b03811115610cab578182fd5b610cb78482850161093e565b949350505050565b600080600060608486031215610cd3578081fd5b83356001600160401b0380821115610ce9578283fd5b610cf58783880161093e565b94506020860135915080821115610d0a578283fd5b610d1687838801610a1a565b93506040860135915080821115610d2b578283fd5b50610d38868287016108ad565b9150509250925092565b60008060408385031215610d54578182fd5b82356001600160401b0380821115610d6a578384fd5b610d7686838701610a1a565b93506020850135915080821115610d8b578283fd5b50610d98858286016108ad565b9150509250929050565b600060208284031215610db3578081fd5b5035919050565b600080600060608486031215610dce578081fd5b8335925060208401356001600160401b0380821115610deb578283fd5b610df787838801610b03565b93506040860135915080821115610e0c578283fd5b50610d388682870161099b565b600060208284031215610e2a578081fd5b81356001600160e01b031981168114610e41578182fd5b9392505050565b60008060408385031215610e5a578182fd5b82356001600160401b0380821115610e70578384fd5b610e7c86838701610b03565b93506020850135915080821115610e91578283fd5b50610d988582860161099b565b60006020808385031215610eb0578182fd5b82356001600160401b0380821115610ec6578384fd5b81850191506040808388031215610edb578485fd5b610ee36114a9565b833581528484013583811115610ef7578687fd5b939093019260608489031215610f0b578586fd5b610f136114cb565b843584811115610f21578788fd5b8501808a03841315610f31578788fd5b610f396114a9565b813586811115610f4757898afd5b82016060818d031215610f5857898afd5b610f606114cb565b813588811115610f6e578b8cfd5b610f7a8e828501610a99565b8252508982013588811115610f8d578b8cfd5b610f998e828501610a99565b8b830152508682013588811115610fae578b8cfd5b610fba8e828501610a99565b82890152508252508188013586811115610fd257898afd5b610fde8c828501610b8b565b828a0152508252508486013581870152610ff9838601610c43565b92810192909252938401525090949350505050565b6000815480845260208085019450838352808320835b838110156110495781546001600160a01b031687529582019560019182019101611024565b509495945050505050565b6000815180845260208085019450808401835b8381101561104957815187529582019590820190600101611067565b600081518084526020808501808196508360051b81019150828601855b858110156110ca5782840389526110b884835161111e565b988501989350908401906001016110a0565b5091979650505050505050565b600081518084526020808501808196508360051b81019150828601855b858110156110ca57828403895261110c848351611169565b988501989350908401906001016110f4565b60008151808452815b8181101561114357602081850181015186830182015201611127565b818111156111545782602083870101525b50601f01601f19169290920160200192915050565b805182526001600160401b036020820151166020830152600060408201516080604085015261119b608085018261111e565b9050606083015184820360608601526111b4828261111e565b95945050505050565b6020808252825182820181905260009190848201906040850190845b818110156111fe5783516001600160a01b0316835292840192918401916001016111d9565b50909695505050505050565b60608152600061121d606083018661100e565b60208382038185015261123082876110d7565b915083820360408501528185518084528284019150828160051b850101838801865b8381101561128057601f1987840301855261126e838351611083565b94860194925090850190600101611252565b50909a9950505050505050505050565b6080815260006112a3608083018761100e565b82810360208401526112b58187611169565b905082810360408401526112c98186611083565b91505082606083015295945050505050565b602081526000610e416020830184611054565b6060815260006113016060830186611054565b828103602084015261131381866110d7565b91505060018060a01b0383166040830152949350505050565b60408152600061133f60408301856110d7565b905060018060a01b03831660208301529392505050565b83815260606020820152600061136f6060830185611169565b905060018060a01b0383166040830152949350505050565b602081526000610e41602083018461111e565b60408152600061133f6040830185611169565b60006040808352845181828501528051606060808601526113d160e086018261111e565b9050602080830151607f19808885030160a08901526113f0848361111e565b9350858501519450808885030160c0890152505061140e828461111e565b9250808801519150603f1986840301606087015281518051845260018060a01b038282015116828501528481015163ffffffff8082168787015280606084015116606087015250505080820151935060a0608084015261147160a0840185611083565b9501959095525091949350505050565b604051608081016001600160401b03811182821017156114a3576114a3611540565b60405290565b604080519081016001600160401b03811182821017156114a3576114a3611540565b604051606081016001600160401b03811182821017156114a3576114a3611540565b604051601f8201601f191681016001600160401b038111828210171561151557611515611540565b604052919050565b60006001600160401b0382111561153657611536611540565b5060051b60200190565b634e487b7160e01b600052604160045260246000fd5b6001600160a01b038116811461156b57600080fd5b5056fea2646970667358221220b80252b5fa512f2ef3669257fabdfb04e029f9551a36f50445d5980e8f9c823b64736f6c63430008040033",
  "linkReferences": {},
  "deployedLinkReferences": {}
}